{
  "contractName": "HelloWorld",
  "abi": [
    {
      "inputs": [],
      "stateMutability": "nonpayable",
      "type": "constructor"
    },
    {
      "inputs": [],
      "name": "price",
      "outputs": [
        {
          "internalType": "int256",
          "name": "",
          "type": "int256"
        }
      ],
      "stateMutability": "view",
      "type": "function",
      "constant": true
    },
    {
      "inputs": [],
      "name": "yourName",
      "outputs": [
        {
          "internalType": "string",
          "name": "",
          "type": "string"
        }
      ],
      "stateMutability": "view",
      "type": "function",
      "constant": true
    },
    {
      "inputs": [
        {
          "internalType": "string",
          "name": "nm",
          "type": "string"
        },
        {
          "internalType": "int256",
          "name": "p",
          "type": "int256"
        }
      ],
      "name": "setName",
      "outputs": [],
      "stateMutability": "nonpayable",
      "type": "function"
    }
  ],
  "bytecode": "0x608060405234801561001057600080fd5b506040518060400160405280600a81526020017f4e6f2042696420596574000000000000000000000000000000000000000000008152506000908051906020019061005c92919061006a565b50600060018190555061016d565b8280546100769061013c565b90600052602060002090601f01602090048101928261009857600085556100df565b82601f106100b157805160ff19168380011785556100df565b828001600101855582156100df579182015b828111156100de5782518255916020019190600101906100c3565b5b5090506100ec91906100f0565b5090565b5b808211156101095760008160009055506001016100f1565b5090565b7f4e487b7100000000000000000000000000000000000000000000000000000000600052602260045260246000fd5b6000600282049050600182168061015457607f821691505b6020821081036101675761016661010d565b5b50919050565b6105748061017c6000396000f3fe608060405234801561001057600080fd5b506004361061005d576000357c01000000000000000000000000000000000000000000000000000000009004806245807d14610062578063a035b1fe1461007e578063d97d66301461009c575b600080fd5b61007c600480360381019061007791906103ae565b6100ba565b005b6100866100e7565b6040516100939190610419565b60405180910390f35b6100a46100ed565b6040516100b191906104bc565b60405180910390f35b6001548113156100e3578060018190555081600090805190602001906100e192919061017b565b505b5050565b60015481565b600080546100fa9061050d565b80601f01602080910402602001604051908101604052809291908181526020018280546101269061050d565b80156101735780601f1061014857610100808354040283529160200191610173565b820191906000526020600020905b81548152906001019060200180831161015657829003601f168201915b505050505081565b8280546101879061050d565b90600052602060002090601f0160209004810192826101a957600085556101f0565b82601f106101c257805160ff19168380011785556101f0565b828001600101855582156101f0579182015b828111156101ef5782518255916020019190600101906101d4565b5b5090506101fd9190610201565b5090565b5b8082111561021a576000816000905550600101610202565b5090565b6000604051905090565b600080fd5b600080fd5b600080fd5b600080fd5b6000601f19601f8301169050919050565b7f4e487b7100000000000000000000000000000000000000000000000000000000600052604160045260246000fd5b6102858261023c565b810181811067ffffffffffffffff821117156102a4576102a361024d565b5b80604052505050565b60006102b761021e565b90506102c3828261027c565b919050565b600067ffffffffffffffff8211156102e3576102e261024d565b5b6102ec8261023c565b9050602081019050919050565b82818337600083830152505050565b600061031b610316846102c8565b6102ad565b90508281526020810184848401111561033757610336610237565b5b6103428482856102f9565b509392505050565b600082601f83011261035f5761035e610232565b5b813561036f848260208601610308565b91505092915050565b6000819050919050565b61038b81610378565b811461039657600080fd5b50565b6000813590506103a881610382565b92915050565b600080604083850312156103c5576103c4610228565b5b600083013567ffffffffffffffff8111156103e3576103e261022d565b5b6103ef8582860161034a565b925050602061040085828601610399565b9150509250929050565b61041381610378565b82525050565b600060208201905061042e600083018461040a565b92915050565b600081519050919050565b600082825260208201905092915050565b60005b8381101561046e578082015181840152602081019050610453565b8381111561047d576000848401525b50505050565b600061048e82610434565b610498818561043f565b93506104a8818560208601610450565b6104b18161023c565b840191505092915050565b600060208201905081810360008301526104d68184610483565b905092915050565b7f4e487b7100000000000000000000000000000000000000000000000000000000600052602260045260246000fd5b6000600282049050600182168061052557607f821691505b602082108103610538576105376104de565b5b5091905056fea2646970667358221220e73e86148c72ce895403ade8539107d17bc81cec7d89e888a405fce7ce7763a564736f6c634300080d0033",
  "immutableReferences": {},
  "source": "pragma solidity ^0.8.13;\r\n\r\ncontract HelloWorld {\r\n    string public yourName;\r\n    int public price;\r\n\r\nconstructor() public {\r\n        yourName = \"No Bid Yet\" ;\r\n        price=0;\r\n}\r\n\r\nfunction setName(string memory nm,int  p) public{\r\n    if(p>price){\r\n        price=p;\r\n        yourName = nm ;\r\n    }\r\n}\r\n}",
  "sourcePath": "C:\\Users\\vamsi krishna\\e_auction\\contracts\\HelloWorld.sol",
  "compiler": {
    "name": "solc",
    "version": "0.8.13+commit.abaa5c0e.Emscripten.clang"
  },
  "schemaVersion": "3.4.7",
  "updatedAt": "2022-05-18T18:01:23.788Z",
  "networkType": "ethereum",
  "devdoc": {
    "kind": "dev",
    "methods": {},
    "version": 1
  },
  "userdoc": {
    "kind": "user",
    "methods": {},
    "version": 1
  }
}